:100000000C942C020C9473020C9473020C947302E3
:100010000C9473020C9473020C9473020C9473028C
:100020000C9473020C9473020C94A31C0C94761D14
:100030000C94B8130C9473020C9473020C94730216
:100040000C9473020C9473020C9473020C9473025C
:100050000C9473020C9419140C9473020C94730294
:100060000C9473020C9473020C9473020C9473023C
:100070000C9473020C9473020C9473020C9473022C
:100080000C9473020C9473020C9473020C9473021C
:100090000C9473020C9473020C9473020C9473020C
:1000A0000C9473020C9473020C94730229004C009C
:1000B0002A00000014001A000800000004001600C6
:1000C000070001531D001B002C0028002400250000
:1000D0002600000021002200230000001E001F0057
:1000E00020000053270037002C00280029000100C1
:1000F00001000000010001000100000001000100FA
:1001000001000100010001000100010001000100E7
:1001100001000000010001000100000001000100D9
:1001200001000100010001000100010001000100C7
:1001300001000000010001000100000001000100B9
:1001400001000100010001000100010001000100A7
:100150000100000001000100010000000100010099
:100160000100010001000100010001000100010087
:100170000100000001000100010000000100010079
:100180000100010001000100010001000100010067
:100190000100000001000100010000000100010059
:1001A0000100010001000100010001000100010047
:1001B0000100000001000100010000000100010039
:1001C0000100010001000100010001000100010027
:1001D0000100000001000100010000000100010019
:1001E0000100010001000100010001000100010007
:1001F00001000000010001000100000001000100F9
:1002000001000100010001000100010001000100E6
:1002100001000000010001000100000001000100D8
:1002200001000100010001000100010001000100C6
:1002300001000000010001000100000001000100B8
:1002400001000100010001000100010001000100A6
:100250000100000001000100010000000100010098
:100260000100010001000100010001000100010086
:100270000100000001000100010000000100010078
:100280000100010001000100010001000100010066
:100290000100000001000100010000000100010058
:1002A00001000100010001000100010012036B00C8
:1002B0006500790062006F00610072006400000058
:1002C000160371006D006B006200750069006C0020
:1002D00064006500720000000403090409026D0057
:1002E000040100A0FA090400000103010100092132
:1002F000110100012240000705810308000A0904DA
:1003000001000103010200092111010001224D0039
:100310000705820308000A09040200010300000027
:100320000921110100012236000705830308000A94
:10033000090403000103000000092111010001224A
:10034000390007058403200001120110010000009C
:1003500008EDFE606001000102000105010906A12F
:1003600001050719E029E7150025019508750181A8
:100370000205081901290595057501910295017578
:100380000391010507190029F71500250195F87556
:10039000018102C005010980A10185021601002624
:1003A00003001A81002A8300751095018100C005A1
:1003B0000C0901A1018503160100269C021A010007
:1003C0002A9C02751095018100C005010902A10156
:1003D0000901A10005091901290515002501950547
:1003E000750181029501750381010501093009310B
:1003F0001581257F95027508810609381581257FAD
:10040000950175088106050C0A38021581257F952E
:100410000175088106C0C005010906A1010507197B
:10042000E029E71500250195087501810295017500
:1004300008810105081901290595057501910295A5
:1004400001750391010507190029FF150026FF001A
:10045000950675088100C00011241FBECFEFDAE0B9
:10046000DEBFCDBF04B603FE27C080910802909185
:100470000902A0910A02B0910B028730904BA7406D
:10048000B04BD1F4109208021092090210920A02A5
:1004900010920B0214BE84B7877F84BF0FB6F89406
:1004A000A895809160008861809360001092600040
:1004B0000FBEE0E0F8E3099511E0A0E0B1E0E6EC62
:1004C000F1E402C005900D92A033B107D9F722E004
:1004D000A0E3B1E001C01D92A830B207E1F70E948D
:1004E000F9190C94B5200C94000090E080E0089578
:1004F0000895089581E00895089581E008950C9489
:100500007A020E940C0C2FEF84E39CE02150804083
:100510009040E1F700C000000C943C14EF92FF9271
:100520000F931F93CF93DF938C01FC01E080F18048
:1005300080915801811140C082818823C1F1C70197
:100540000E948F11C82F682FC7010E943A11B7016E
:100550008C2F0E94C603EC01B8010E947F02882301
:1005600009F44BC0B801CE010E94CE05882309F4DE
:1005700044C0C531F0E7DF0720F5C23080E7D80777
:1005800008F04DC0C115E0E7DE0791F1C130D0475A
:10059000E1F181E08093320180933301C801DF9162
:1005A000CF911F910F91FF90EF900C947D02C701A6
:1005B0000E946711C82FCBCFC7010E948F11B701CE
:1005C000C8CFCC3380E7D80709F49BC0CD33D047E0
:1005D00001F7F8018281882309F4BAC0109233012F
:1005E0000E94E813909331018093300180E296C01D
:1005F000F801828181110E94810280E0DF91CF9118
:100600001F910F91FF90EF900895F8018281882348
:10061000A1F38091C80181608093C801EECFF801F9
:100620008281882309F4BACF0E944A13811102C043
:100630000E9430130E94671390E09093FA01809318
:10064000F901FE01E350F0478091F9018160E23148
:10065000F10538F4E954FF4D0C9465208091F901BF
:1006600082608093F9018091F9010E946B130E94CE
:100670000C0CC3CF8091F9018460F3CF8091F90114
:100680008860EFCF8091F9018061EBCF8091F90113
:100690008062E7CF8091F9018064E3CF8091F90116
:1006A0008068DFCF8091F9018C60DBCF8091F90108
:1006B0008E7FD7CF8091F9018D7FD3CF8091F901C3
:1006C0008B7FCFCF8091F901877FCBCF8091F901CC
:1006D0008F7EC7CF8091F9018F7DC3CF8091F901C3
:1006E0008F7BBFCF8091F9018F77BBCF8091F901CC
:1006F000837FB7CF9091F901892F97FB87F98058B5
:10070000B0CFF8018281882361F0109232010E94FB
:10071000E813909331018093300182E00E947109C7
:100720006CCF8091320181110FC080913001909186
:1007300031010E94F413883C910530F486E20E9456
:10074000460886E20E94220982E00E94780955CF7D
:100750008091330181110FC080913001909131015E
:100760000E94F413883C910530F487E20E94460809
:1007700087E20E94220980E2E8CF0C941D060C94C7
:100780001F060C947C020C94C103089594E0899F89
:10079000F0011124E70FF11DEE0FFF1FEE0FFF1FF9
:1007A000E60FF11DEE0FFF1FE455FF4F8591949169
:1007B0000895FC01EE0FFF1FE455FD4F85919491C4
:1007C00008950E94C6030E9452059C01811540E4D1
:1007D000940708F097C0211580E3380708F0FAC0A5
:1007E000203E310508F074C0203C310508F0E5C01A
:1007F000283A310588F4253A310508F0E2C0213065
:10080000310509F477C0C9010497813A910508F4CC
:1008100071C030E020E06EC0C901885A9109459747
:10082000C0F7283A310509F4FEC0293A310509F428
:10083000FDC02A3A310509F4FCC02B3A310509F410
:10084000FBC02C3A310509F4FAC02B3B310509F401
:10085000F9C02C3B310509F4F8C02D3A310509F4F3
:10086000F7C0203B310509F4F6C02E3A310509F4F2
:10087000F5C02F3A310509F4F4C0213B310509F4E4
:10088000F3C0223B310509F4F2C0233B310509F4E2
:10089000F1C0243B310509F4F0C0253B310509F4D2
:1008A000EFC0263B310509F4EEC0273B310509F4C2
:1008B000EDC0283B310509F4ECC0293B310509F4B2
:1008C000EBC02A3B310509F4EAC020E034E412C051
:1008D000211590E2390780F42F3F310509F050F4DB
:1008E000283E310538F0C901805F91093065409795
:1008F00008F08FCFC9010895C9019F700E94D903E4
:100900009C01F8CF8115944508F041C0211583E57D
:10091000380708F06AC0211592E5390738F5211526
:1009200041E5340708F05CC0211580E5380708F47C
:1009300054C0C90134E0969587953A95E1F78370E4
:10094000422F46954695437090E2499FA00111249D
:10095000582B822F837021E030E002C0220F331F1A
:100960008A95E2F7242B352B3C68C4CFC9018370EC
:10097000992741E050E002C0440F551F8A95E2F7E5
:100980002695269580E2289F90011124EBCF211512
:1009900096E5390748F4922F882721153545C8F583
:1009A0009C01246F306AA6CFC90190563F70811513
:1009B000904108F02ECF30629DCFC901805C910933
:1009C0009DCF253A310549F1263A310549F522E80E
:1009D00030E490CF3327306C8DCF3F70306A8ACFB0
:1009E000322F2227216F306A85CFC9018370992762
:1009F00041E050E002C0440F551F8A95E2F726956A
:100A0000269580E2289F90011124242B352B3A68EB
:100A100071CF88279F719C01CECF21E830E46ACF47
:100A200023E830E467CF22EE34E464CF29EE34E4E7
:100A300061CF2AEE34E45ECF25EB34E45BCF26EBC6
:100A400034E458CF23EB34E455CF24EB34E452CFD5
:100A500027EB34E44FCF2CEC34E44CCF2DEC34E4D2
:100A600049CF23E835E446CF2AE835E443CF22E9ED
:100A700035E440CF24E935E43DCF21E236E43ACFF6
:100A800023E236E437CF24E236E434CF25E236E4FD
:100A900031CF26E236E42ECF27E236E42BCF2AE20E
:100AA00036E428CF803E910581F1C8F48133910569
:100AB00009F462C048F48932910509F456C08A32BB
:100AC000910509F460C0089589339105B9F0823821
:100AD0009105A1F08533910509F440C00895863E43
:100AE000910561F138F4823E9105B1F0833E9105A4
:100AF000E1F00895873E910551F108952091F901A3
:100B00002370D9F080EE90E008952091F90120FF44
:100B100014C089E390E008952091F90122FF0DC0EF
:100B200024FD09C083EE90E008952091F90122FD93
:100B300031C024FF02C090E080E008952091F901C7
:100B400023FFFBCF24FDF7CF87EE90E0089520919F
:100B5000F90123FFEECF86EE90E008952091F90190
:100B600025FFEBCF89E290E008952091F90125FF60
:100B7000E4CF85E390E008952091F90126FFDDCFD1
:100B80008AE290E008952091F90126FFD6CF81E313
:100B900090E0089582EE90E0089508950F931F93DA
:100BA000CF938C01FB018281811106C0C1E08C2FA3
:100BB000CF911F910F910895C0914101C11125C09E
:100BC0000531104799F70E94CD0581E080934101DE
:100BD0000E94E8139093400180933F0110923401EA
:100BE000109236011092350110923801109237019F
:100BF00010923A011092390110923C0110923B017F
:100C000010923E0110923D01D2CF80913F01909110
:100C100040010E94F413883C910540F68091340114
:100C2000E82FF0E0EE0FFF1FEB5CFE4F1183008317
:100C30008F5F80933401C0E0BACF0C9478020C949B
:100C40007902CF93DF9385B7806885BF85B78068C9
:100C500085BFA7E1B1E04BE151E0C1E0D0E08D916B
:100C6000E82FE295EF70F0E061A18F709E0101C066
:100C7000220F8A95EAF7922F9095962391A382A14D
:100C8000822B82A34A175B0751F7A3E1B1E047E14A
:100C900051E0C1E0D0E08D91E82FE295EF70F0E0F7
:100CA00061A18F709E0101C0220F8A95EAF7922FF1
:100CB0009095962391A382A1822B82A34A175B076A
:100CC00051F7109246011092420110924701109282
:100CD0004301109248011092440110924901109270
:100CE0004501DF91CF910C94BD036F927F928F925B
:100CF0009F92AF92BF92CF92DF92EF92FF920F93AB
:100D00001F93CF93DF9332E4632E31E0732E47E1DC
:100D1000E42E41E0F42E01E010E0DD24D394E30161
:100D2000C9903E01DE011E92F70181917F01E82FFB
:100D3000E295EF70F0E091A18F70A80101C0440F1F
:100D40008A95EAF7892F842B81A382A1842E80942F
:100D5000882182A380EA8A95F1F763E171E090E04F
:100D600080E0EB013991BE01A32EA2942FE0A222D4
:100D7000B12CE50128A19C903F70580101C0AA0C3C
:100D80003A95EAF7A22220E031F4202F082E01C084
:100D9000220F0A94EAF729292C93019684309105B1
:100DA00001F781A1882181A382A1482B42A38C91C4
:100DB000C81641F0D0924A010E94E81390934C016A
:100DC00080934B01D6E46D16D1E07D0609F0A7CFE4
:100DD00080914A018823D1F080914B0190914C0180
:100DE0000E94F413069790F080914201809346018F
:100DF0008091430180934701809144018093480191
:100E0000809145018093490110924A010E94BF03DD
:100E100081E0DF91CF911F910F91FF90EF90DF90D4
:100E2000CF90BF90AF909F908F907F906F900895DC
:100E3000E82FF0E0EA5BFE4F8081089508959093DB
:100E40005201809351010895E0915101F0915201B6
:100E5000309721F00190F081E02D099480E0089511
:100E6000E0915101F0915201309721F00280F3811D
:100E7000E02D09940895E0915101F09152013097CD
:100E800021F00480F581E02D0994089520914F010F
:100E9000309150012817390771F0909350018093D9
:100EA0004F01E0915101F0915201309721F00680FD
:100EB000F781E02D0994089520914D0130914E0164
:100EC0002817390771F090934E0180934D01E091FE
:100ED0005101F0915201309721F00084F185E02D0D
:100EE0000994089508950C9472070E94DF130E94DC
:100EF00021060C94A114BF92CF92DF92EF92FF9241
:100F00000F931F93CF93DF9300D000D00F92CDB7F4
:100F1000DEB70E94750684E5C82E81E0D82E10E069
:100F200000E0E02E802F0E941807B82EF601F19005
:100F30006F01F81609F45BC08091C80181FD0E9421
:100F40001E0730E020E0FB244F2D50E0922FBA0125
:100F5000022E02C0759567950A94E2F760FF41C0C2
:100F60002983EA8221E030E0790102C0EE0CFF1C07
:100F70009A95E2F72B2D30E02E213F2181E0232BA3
:100F800009F480E08B830E94E8138160782F9D83B1
:100F90008C8349815A816B818D810E941D08F801E3
:100FA000EC5AFE4F80818E2580830E944E170E944E
:100FB000240790915301891789F10E942407809397
:100FC00053010F900F900F900F900F90DF91CF91E2
:100FD0001F910F91FF90EF90DF90CF90BF900C94F6
:100FE000C3032F5F3F4F2430310509F0AFCF0F5FB0
:100FF0001F4F0430110509F094CF8FEF89838A8346
:101000001B820E94E8138160782F9D838C83498125
:101010005A816B818D810E941D08C7CF0F900F9060
:101020000F900F900F90DF91CF911F910F91FF9034
:10103000EF90DF90CF90BF900895CF93DF93CDB71F
:10104000DEB72B970FB6F894DEBF0FBECDBF4F8330
:10105000588769877A878B871E8285E0FE013796DD
:10106000DE01119601900D928A95E1F749815A812E
:101070006B817C818D819E812B960FB6F894DEBFAB
:101080000FBECDBFDF91CF910C94940E882309F44D
:10109000D8C0823871F40E94240781FDD2C089E350
:1010A0000E9437120E94011389E30E9474120C946B
:1010B0000113833859F40E94240780FDC2C083E5E0
:1010C0000E9437120E94011383E5EFCF843859F450
:1010D0000E94240782FDB5C087E40E9437120E9457
:1010E000011387E4E2CF9CEF980F913A18F40E9425
:1010F0003712DDCF90E2980F983050F4877091E06E
:1011000001C0990F8A95EAF7892F0E94B812CFCFB4
:101110009BE5980F933070F4853A31F0863A39F0B8
:1011200083E890E00C94460781E890E0FBCF82E8EA
:1011300090E0F8CF98E5980F953108F082C0883A92
:1011400009F440C0893A09F440C08A3A09F440C021
:101150008B3A09F440C08C3A09F440C08B3B09F447
:1011600040C08C3B09F440C08D3A09F440C0803B3C
:1011700009F440C08E3A09F440C08F3A09F440C0E7
:10118000813B09F440C0823B09F440C0833B09F431
:1011900040C0843B09F440C0853B09F440C0863B15
:1011A00009F440C0873B09F440C0883B09F440C0C3
:1011B000893B09F440C08A3B09F440C090E080E0DC
:1011C0000C945C0782EE90E0FBCF89EE90E0F8CFC4
:1011D0008AEE90E0F5CF85EB90E0F2CF86EB90E0E1
:1011E000EFCF83EB90E0ECCF84EB90E0E9CF87EB9F
:1011F00090E0E6CF8CEC90E0E3CF8DEC90E0E0CF98
:1012000083E891E0DDCF8AE891E0DACF82E991E0EE
:10121000D7CF84E991E0D4CF81E292E0D1CF83E2CD
:1012200092E0CECF84E292E0CBCF85E292E0C8CFCD
:1012300086E292E0C5CF87E292E0C2CF8AE292E0F6
:10124000BFCF0895882309F44BC0823871F40E94FF
:10125000240781FF45C089E30E9437120E940113D1
:1012600089E30E9474120C940113833859F40E948C
:10127000240780FF35C083E50E9437120E940113C6
:1012800083E5EFCF843859F40E94240782FF28C0F9
:1012900087E40E9437120E94011387E4E2CF9CEF9B
:1012A000980F913AF0F290E2980F983050F48770CE
:1012B00091E001C0990F8A95EAF7892F0E94BE122A
:1012C000D2CF9BE5980F933020F490E080E00C940F
:1012D0004607885A853120F490E080E00C945C0742
:1012E0000895882321F00E94B8120C9401130895E8
:1012F000882321F00E94BE120C94011308958F924E
:101300009F92AF92BF92DF92EF92FF920F931F9343
:10131000CF93DF9300D000D00F92CDB7DEB77C0122
:101320006D837983FC01058102950F701281111183
:101330000E94D7120E943012D82E882371F01123F8
:10134000A1F08D81805E883080F082E00E941A12C8
:101350000E94301291E0D82ED926E981E295EF70F3
:10136000F0E0E753FF4D0C946520D12CF6CF0981B6
:101370000F70F981F07F11F00295007F1123B1F019
:10138000002361F08D81805E883018F02D8121115D
:1013900009C0802F0E94B8120E9401138D810E9403
:1013A000460815C0802F0E94C912F6CF8D810E9479
:1013B0002209002361F08D81805E883018F03D8124
:1013C000311129C0802F0E94BE120E940113DD201E
:1013D00009F4D3C10E940D1280FDCFC1F701128222
:1013E0000E9407120E945210C7010E94CE0B0E9459
:1013F00007120F900F900F900F900F90DF91CF91E9
:101400001F910F91FF90EF90DF90BF90AF909F9052
:101410008F900C947410802F0E94CF12D6CF4981E8
:101420004F70B42E5981507F503219F0B29480EF32
:10143000B8228D81882369F0813029F1112369F167
:10144000002359F0F701858180FFA8CF8F70858335
:1014500004C0112361F0011104C08B2D0E94710999
:10146000B6CF8B2D0130D1F70E94EB12B0CF011116
:1014700006C00E94EE128B2D0E947809A8CF013081
:1014800009F4A5CFF6CF112321F0063008F09FCF45
:10149000E4CF053008F09BCFEECF002361F38D81C0
:1014A0000E94220994CF898186958695837069F080
:1014B000813009F08CCF8D8199819370111102C018
:1014C00090E080E00E945C0782CF8D8199819370CB
:1014D000111102C090E080E00E94460778CF8D8114
:1014E000112329F00E945C160E94431770CF0E94BE
:1014F000C416FACF8981837009F05FC0111167CFDC
:101500002D81229526952770220F220F8D818F70B5
:1015100090E0B0E0A0E04C015D01022E04C0880C18
:10152000991CAA1CBB1C0A94D2F7FD8160E070E0F4
:10153000CB01F4FF0FC06FE070E080E090E004C0EA
:10154000660F771F881F991F2A95D2F760957095AF
:101550008095909529812695269523702D8322309C
:10156000B1F0233019F19B01AC01282939294A290E
:101570005B2929833A834B835C833D8169817A812E
:101580008B819C813130B1F00E94DF0F20CF9B0115
:10159000AC01282939294A295B2929833A834B83BD
:1015A0005C83CA01B9010E94091011CF0E94DF0FAC
:1015B000C501B4010E94B50F0ACF8695112311F021
:1015C00089818170882309F402CF2D812295269587
:1015D0002770220F220F8D818F7090E0B0E0A0E085
:1015E0004C015D01022E04C0880C991CAA1CBB1C76
:1015F0000A94D2F73D8160E070E0CB0134FF0FC068
:101600006FE070E080E090E004C0660F771F881FF5
:10161000991F2A95D2F7609570958095909549818C
:101620004695469543704D834230B1F0433019F1F1
:101630009B01AC01282939294A295B2929833A834E
:101640004B835C833D8169817A818B819C813130C0
:10165000B1F00E94E510BBCE9B01AC0128293929CD
:101660004A295B2929833A834B835C83CA01B901E8
:101670000E940F11ACCE0E94E510C501B4010E947A
:10168000BB10A5CE3D81323F09F447C080F4303F06
:1016900079F1313FD9F1832F805E8031D0F0112371
:1016A00009F456C001117ACE89818F7133C04D8102
:1016B000433FD1F1443F99F7112309F43FC0898199
:1016C0008F7189830E94521063E089810E941112F8
:1016D0007ECE5D815F705D8389818F71112321F0E2
:1016E0000E9452108D81BACE0E9474108D81C4CE9A
:1016F000112341F0053008F06ACE89818F710E9474
:10170000991065CE063008F062CEF7CF89818F71CF
:10171000112339F00E9452105ACE89818F71112302
:10172000C9F30E94741053CE112329F089818F715F
:101730000E943D104CCE0E94331049CE81E00E94A1
:101740001A12023008F443CE82E00E941A123FCEF1
:101750000111A5CE89818F71E4CF49814F706D81D0
:10176000C7010E9475020E942E0F31CE49814F7031
:101770006D81C7010E94C5032ACE0F900F900F9074
:101780000F900F90DF91CF911F910F91FF90EF90ED
:10179000DF90BF90AF909F908F9008950F931F930D
:1017A000CF93DF93EC018B819C81892B29F0888179
:1017B000998189238F3F29F4DF91CF911F910F9158
:1017C0000895CE010E948E028823B1F36881798149
:1017D0008A810E94DD118C010E9439110E94AA0F9A
:1017E000B801CE01DF91CF911F910F910C947F0929
:1017F0000E94D7120E94E8120E94AA120E940113AE
:101800000E9434180E94431790E080E00E9446072F
:1018100090E080E00C945C070E94C6120C94F80BD8
:101820000E94D111282F892F82958F70903C80F4CF
:101830008A30B0F4843020F4823090F480E008954F
:101840008630E1F781E0203E88F0213FB9F70EC0F5
:101850008C3011F08F3091F793FB882780F9089531
:1018600081E0203F39F018F4203E40F70895243FEE
:1018700029F7FCCF0895CF93DF9300D000D00F92CB
:10188000CDB7DEB70F900F900F900F900F90DF91B4
:10189000CF910895CF93DF9300D000D000D0CDB783
:1018A000DEB726960FB6F894DEBF0FBECDBFDF9130
:1018B000CF9108951F93CF93DF93E091590116E0E4
:1018C00080915A018E1304C0DF91CF911F9108952A
:1018D000CE2FD0E01E9FF0011124E55AFE4F40812B
:1018E000518162817381848195810E944A0CFE013D
:1018F0003196E770E5CF40918B0150918C0160915A
:101900008D0170918E0180918F01909190010C94C6
:101910004A0C1F93CF93DF9380919001807FC1F495
:1019200080918D018823A1F080915901C0915A01C5
:1019300060918B0170918C0140918E0150918F01CB
:10194000D62FD723DA01A095B09516E0C81304C0AE
:10195000DF91CF911F91089590E04115510511F04D
:10196000DF3F31F401968770F1CF2A0F3B1F17C07C
:10197000189FF001199FF00D1124E55AFE4F2181A7
:101980002713F0CF20812613EDCF22812111EACF3A
:10199000238134812417350740F3241B350B283C61
:1019A000310500F7209190012F7020612093900164
:1019B00026E0289FF001299FF00D1124E05AFE4FE8
:1019C00080818F70806180838BE891E00E94CE0BD4
:1019D000DF91CF911F910C945A0C9F92AF92BF92BE
:1019E000CF92DF92EF92FF920F931F93CF93DF93EB
:1019F000CDB7DEB72B970FB6F894DEBF0FBECDBFC5
:101A00008C0185E0F801DE01179601900D928A9510
:101A1000E1F7D8014C9111965C9111971296EC90D8
:101A2000129780918E0190918F01009709F46BC1FC
:101A300020918B0130918C01632F62236F3F09F459
:101A400062C11396CD90DC9090908D01992009F49D
:101A5000F8C0C816D90608F43FC0F601E81BF90B18
:101A6000CF01FF24F394883C910508F0F12C8BE81A
:101A7000A82E81E0B82E80919001982F907FFF20B2
:101A800009F4B7C0911180C0FE2C35132AC024136D
:101A900028C0E11026C08F708061809390010E9461
:101AA0007B0CC5010E94CE0B80919001D801159648
:101AB0008C938F2D2B960FB6F894DEBF0FBECDBF43
:101AC000DF91CF911F910F91FF90EF90DF90CF901A
:101AD000BF90AF909F900895809590958C0D9D1D1F
:101AE000C0CFCD2829F0842F85238F3F09F019C15D
:101AF00080E0B82FB170DB2EE091590120915A019E
:101B000036E080FD1CC0EE20A1F280919001816042
:101B100080939001F12CCDCF8E2F90E03E9FF0016D
:101B20001124E55AFE4F6181651306C0608164137C
:101B300003C062816E11E7CFFC013196E770E213BA
:101B4000EBCF4F8358878F8198850E94D111292F21
:101B500022952F70903260F0225F2F70223078F43F
:101B60009F7051F0F8019581907F31F4D12C0AC01B
:101B70009F7011F08823D1F3805E8830B8F3C801DC
:101B80000E94CE0BFD2C95CF351306C0241304C044
:101B9000D801EE2009F47BC04F8358878F81988548
:101BA0000E94100C882309F4B8C0EE2009F4B5C0D7
:101BB00080919001803270F020918B0130918C01E6
:101BC0003A8329831B82DD82CC828E83CE010196EB
:101BD0000E94CE0B86E0F801ABE8B1E001900D92D7
:101BE0008A95E1F70E94890C0E947B0CFF24F394F4
:101BF00060CF911113C07C2DDB86CA866E2D8B853C
:101C00000E943B0C8BE891E00E94CE0B86E0F50130
:101C100011928A95E9F70E947B0C4BCF3513BCCF0C
:101C20002413BACFE110B8CFD80115968C93C80110
:101C30000E94CE0B86E0F50111928A95E9F7F92C06
:101C400038CFC816D90688F1B601681B790BCB01CD
:101C5000F12C883C910508F047C0FE2CEE2009F4D9
:101C60005CC0351330C024132EC08091900180FDDC
:101C700021C0982F907FF1F0D80115968C9315977D
:101C8000903F39F0982F907F905F8F70892B159639
:101C90008C93C8010E94CE0B86E0F801ABE8B1E05E
:101CA00001900D928A95E1F7B6CF809590958C0DB5
:101CB0009D1DCECF86E0F801ABE8B1E001900D921A
:101CC0008A95E1F7F6CE4F8358878F8198850E94D9
:101CD000100C81117FCF80919001816080939001E1
:101CE000C8010E94CE0BE5CE7C2DDB86CA866E2D08
:101CF0008B850E943B0C86E0EBE8F1E0DF011D9252
:101D00008A95E9F788CFEE2041F04F8358878F817D
:101D100098850E94100C81115DCFC8010E94CE0BE6
:101D200065CF81E08E25E5CE1F93CF93DF93CDB7AE
:101D3000DEB72C970FB6F894DEBF0FBECDBF4F8332
:101D4000588769877A878B879C87CE0107960E9480
:101D5000ED0C882369F08A859B85892B39F04F81AA
:101D60005885842F85238F3F09F071C016E05FC02E
:101D700086E0FE013796DE01119601900D928A955C
:101D8000E1F78A859B85892B89F388859F81892343
:101D90008F3F61F320915A0130E0C90101968770AD
:101DA0009927409159014817190671F40E940C0CAB
:101DB00010925A011092590186E0EBE8F1E0DF0140
:101DC0001D928A95E9F7D2CF96E0929FD001939F1A
:101DD000B00D1124A55ABE4FFE01319601900D920F
:101DE0009A95E1F780935A010E945A0CBFCF819FC8
:101DF000C0011124855A9E4F0E94ED0C8823E9F002
:101E0000E09159011E9FF0011124E55AFE4F4081D7
:101E1000518162817381848195810E944A0C8091F5
:101E2000590190E00196877099278093590180911C
:101E3000590190915A018913DACF2C960FB6F89474
:101E4000DEBF0FBECDBFDF91CF911F910895698591
:101E50007A858B859C850E944A0C88CFEF92FF92F1
:101E60000F931F93CF93DF938C01892B89F0F12C73
:101E7000EE24E394E8012196F8018491843709F473
:101E800057C0A0F4823009F43EC048F48130D1F04C
:101E9000DF91CF911F910F91FF90EF9008959CEFEC
:101EA000980F9037A8F70E9446080AC0853709F4B2
:101EB0004CC09CE7980F903758F78F770E94220903
:101EC0008E0116C00E5F1F4FFE01849190E2980FA5
:101ED000983060F48770FE2D01C0FF0F8A95EAF7F5
:101EE0008F2F0E94DA120E94011302C00E9446083E
:101EF0008F2D815008F4BECFEFE9FFE03197F1F765
:101F000000C00000F6CF0E5F1F4FFE01849190E2EB
:101F1000980F983050F48770FE2D01C0FF0F8A95FE
:101F2000EAF78F2F0E94E012DECF0E942209E0CF55
:101F30000E5F1F4FFE01C491C150D0F28FE99FE0A8
:101F40000197F1F700C00000F7CF0E5F1F4FFE01B1
:101F5000F490CECF089560939F017093A001809379
:101F6000A1019093A2010C94F80BCF93DF9300D0C2
:101F700000D0CDB7DEB769837A838B839C83809151
:101F80009F019091A001A091A101B091A20129818E
:101F90003A814B815C81822B932BA42BB52B8093B0
:101FA0009F019093A001A093A101B093A2010F9073
:101FB0000F900F900F90DF91CF910C94F80BCF936F
:101FC000DF9300D000D0CDB7DEB769837A838B83EF
:101FD0009C8380919F019091A001A091A101B0915B
:101FE000A20129813A814B815C8182239323A4231E
:101FF000B52380939F019093A001A093A101B0937A
:10200000A2010F900F900F900F90DF91CF910C9441
:10201000F80BCF93DF9300D000D0CDB7DEB7698344
:102020007A838B839C8380919F019091A001A091E2
:10203000A101B091A20129813A814B815C81822763
:102040009327A427B52780939F019093A001A09385
:10205000A101B093A2010F900F900F900F90DF910C
:10206000CF910C94F80B10929B0110929C0110924E
:102070009D0110929E010C94F80B41E050E060E04D
:1020800070E004C0440F551F661F771F8A95D2F772
:1020900040939B0150939C0160939D0170939E011E
:1020A0000C94F80B282F81E090E0A0E0B0E004C091
:1020B000880F991FAA1FBB1F2A95D2F740919B0139
:1020C00050919C0160919D0170919E01842B952BF4
:1020D000A62BB72B80939B0190939C01A0939D010D
:1020E000B0939E010C94F80B41E050E060E070E08A
:1020F00004C0440F551F661F771F8A95D2F740957D
:1021000050956095709580919B0190919C01A09154
:102110009D01B0919E0184239523A623B72380932C
:102120009B0190939C01A0939D01B0939E010C9400
:10213000F80B282F81E090E0A0E0B0E004C0880F09
:10214000991FAA1FBB1F2A95D2F740919B0150915E
:102150009C0160919D0170919E0184279527A6277F
:10216000B72780939B0190939C01A0939D01B0930E
:102170009E010C94F80BCF93DF9300D000D0CDB725
:10218000DEB769837A838B839C8380919B019091D6
:102190009C01A0919D01B0919E0129813A814B81C2
:1021A0005C81822B932BA42BB52B80939B01909366
:1021B0009C01A0939D01B0939E010F900F900F90F2
:1021C0000F90DF91CF910C94F80BCF93DF9300D059
:1021D00000D0CDB7DEB769837A838B839C838091EF
:1021E0009B0190919C01A0919D01B0919E0129813C
:1021F0003A814B815C8182239323A423B52380936E
:102200009B0190939C01A0939D01B0939E010F9020
:102210000F900F900F90DF91CF910C94F80BCF930C
:10222000DF9300D000D0CDB7DEB769837A838B838C
:102230009C8380919B0190919C01A0919D01B09104
:102240009E0129813A814B815C8182279327A427B3
:10225000B52780939B0190939C01A0939D01B0931F
:102260009E010F900F900F900F90DF91CF910C94E3
:10227000F80B0895E92FEE0FEE0FE80F8E2F877001
:1022800041E001C0440F8A95EAF7E695E695E695A8
:1022900085E0E89FF0011124EF56FE4F30E020E08A
:1022A00070E05191DF011197CB01022E02C096958B
:1022B00087950A94E2F78170819585278423852785
:1022C0008C932F5F3F4F2530310559F70895E92F43
:1022D000EE0FEE0FE80F9E2F9770E695E695E695C8
:1022E00085E0E89FF0011124EF56FE4F50E040E0FA
:1022F00080E0219130E0092E02C0369527950A949E
:10230000E2F721703327042E01C0220F0A94EAF766
:10231000822B4F5F5F4F4530510559F70895BF92AB
:10232000CF92DF92EF92FF920F931F93CF93DF93A1
:102330008C01C0909B01D0909C01E0909D01F09099
:102340009E0180919F019091A001A091A101B09167
:10235000A201C82AD92AEA2AFB2ACFE1D0E0BC2E62
:10236000D701C6010C2E04C0B695A7959795879501
:102370000A94D2F780FD0EC0219788F7B12C8B2DDF
:10238000DF91CF911F910F91FF90EF90DF90CF9051
:10239000BF900895B8018C2F0E94E103019761F36B
:1023A000EECFCF93DF93D82FC92F0E948F116D2FBF
:1023B0007C2FDF91CF910C94E1031F93CF93DF9398
:1023C000162FD72F90915801992339F0862F972FE8
:1023D000DF91CF911F910C94D111882391F0862F1A
:1023E000972F0E948F11C82F682F812F9D2F0E9439
:1023F0003A11612F7D2F8C2FDF91CF911F910C947B
:10240000E103862F972F0E946711C82FF2CF80918A
:10241000A30185958595859508958091A301877081
:10242000089598E0899F90011124622B6093A30185
:102430000C9452109091A301809589238093A3015D
:10244000282F277061F4282F082E000C330B9217C9
:10245000130629F08595859585950C94741008953B
:102460009091A301977081E009F480E00895909124
:1024700012019923E1F09091F90197FF18C0E82F1C
:10248000E695E695E695EF3139F12091000130911E
:102490000101E20FF32FF11D877021E030E001C050
:1024A000220F8A95EAF78181822B818308952091FA
:1024B000000130910101F90132969FEF40E0519106
:1024C000851751F09F3F19F4511101C0942F4F5FB0
:1024D0004E31A9F79F3F09F40895290F311D97FD4B
:1024E0003A95F9018283089590911201992301F19F
:1024F0009091F90197FF1CC0E82FE695E695E695C7
:10250000EF3139F12091000130910101E20FF32FF9
:10251000F11D877021E030E0A90102C0440F551F72
:102520008A95E2F7CA018095918189238183089574
:102530002091000130910101F9013296205E3F4F58
:102540009191891303C0DF0111971C92E217F307E1
:10255000B9F7089581E090E0E0910001F091010168
:10256000E80FF91F1082019680329105A9F70895AE
:102570009091C701982B9093C7010895982F90953B
:102580008091C70189238093C70108951092C701E4
:1025900008959091C601982B9093C6010895982FA5
:1025A00090958091C60189238093C6010895109269
:1025B000C60108959091C501982B9093C501089587
:1025C000982F90958091C50189238093C501089526
:1025D0001092C50108958093A40108951092A4015A
:1025E00008952091000130910101F9013196205E9A
:1025F0003F4F80E0919191118F5FE217F307D1F780
:102600000895E0910001F09101018091C70180835C
:10261000E0910001F091010180819091C601892B28
:102620008083E0910001F091010180819091C501CA
:10263000892B80839091A401992361F0E09100019E
:10264000F09101018081892B80830E94F112811118
:102650001092A40180910001909101010C94300727
:102660006DEE7EEF90E080E00E949F2060E082E0CF
:1026700090E00E948D2060E083E090E00E948D2039
:1026800060E084E090E00E948D2060E085E090E0D2
:102690000C948D2090E080E00E9487209C0181E0D6
:1026A0002D3E3E4F09F080E0089582E090E00C94CA
:1026B0007F20682F82E090E00C948D2083E090E0F2
:1026C0000C947F20682F83E090E00C948D2084E0B0
:1026D00090E00C947F20682F84E090E00C948D2093
:1026E0008091FF01843039F11092C90188E190E0B6
:1026F00020E40FB6F894A895809360000FBE209355
:10270000600080E00E94C30383B7817F846083BF41
:1027100083B7816083BF7894889583B78E7F83BFAA
:102720000FB6F894A895809160008861809360004E
:10273000109260000FBE089508950895CF930E94EF
:102740009C130E9475060E949D13C0E08C2F0E946E
:102750001807811105C0CF5FC430C1F7CF9108952C
:1027600081E0FCCF0E940C0C0E9424070C94C30350
:102770001F921FB61F9211248F939F93AF93BF9305
:102780008091C901811113C08091F5019091F601EA
:10279000A091F701B091F8014196A11DB11D809360
:1027A000F5019093F601A093F701B093F801BF9162
:1027B000AF919F918F911F901FBE1F90189582E03F
:1027C00084BD93E095BD9AEF97BD80936E00089508
:1027D0002FB7F8948091F5019091F601A091F7013F
:1027E000B091F8012FBF0895CF92DF92EF92FF9240
:1027F0009C014FB7F8948091F5019091F601A0915A
:10280000F701B091F8014FBF6C017D01EE24FF2468
:10281000A90170E060E0C416D506E606F70638F0B8
:10282000821B930BFF90EF90DF90CF90089501975C
:10283000F7CF1F921FB61F9211248F939F93AF93D0
:10284000BF938091F5019091F601A091F701B091AD
:10285000F8010196A11DB11D8093F5019093F60139
:10286000A093F701B093F801BF91AF919F918F9121
:102870001F901FBE1F9018950E94281CF8942FEFE0
:1028800087EA91E6215080409040E1F700C00000C7
:1028900087E090EBDC018093080290930902A093FB
:1028A0000A02B0930B0288E19CE00FB6F894A89559
:1028B000809360000FBE90936000FFCFCF92DF92B5
:1028C000EF92FF920F931F93CF93C0E0E82EF12C6D
:1028D0008C2F0E94180710E000E0C82ED12CC601F2
:1028E000002E02C0959587950A94E2F780FF11C0EB
:1028F000602F7C2F80E00E94C603E816F90649F499
:1029000081E0CF911F910F91FF90EF90DF90CF90DA
:1029100008950F5F1F4F0430110509F7CF5FC430D2
:10292000B9F680E0EECFCF93C82F8CE20E945E1400
:10293000882321F08C2FCF910C945E1480E0CF91EE
:102940000895CF93DF9300D000D0CDB7DEB70E94BB
:102950004A13811102C00E94301395E6998308C082
:102960000E9475068FE39CE90197F1F700C0000013
:10297000A981A150A983A111F3CF89E20E949314E8
:10298000811110C18AE20E94931481110E943013B8
:1029900085E00E94931481110E943C140E945513FB
:1029A0008093C80187E00E949314882371F08BE123
:1029B0000E949314882309F4D1C09091C801892FF3
:1029C0008D7F91FF82608093C8018091C8010E9431
:1029D00059130E94671390E09093FA018093F901D4
:1029E00080EE0E949314882341F09091F901892F81
:1029F0008E7F90FF81608093F90189E30E94931498
:102A0000882341F09091F901892F8D7F91FF826099
:102A10008093F90182EE0E949314882341F09091F3
:102A2000F901892F8B7F92FF84608093F90186EEF4
:102A30000E949314882341F09091F901892F877F98
:102A400093FF88608093F90183EE0E94931488239A
:102A500041F09091F901892F8F7E94FF80618093DE
:102A6000F90185E30E949314882341F09091F901C4
:102A7000892F8F7D95FF80628093F90181E30E9409
:102A80009314882341F09091F901892F8F7B96FF51
:102A900080648093F90181E10E949314882341F0BE
:102AA0009091F901892F97FB87F980588093F9015C
:102AB0008091F9010E946B1387E20E94931489832D
:102AC0008EE10E949314882319F0B981B260B98312
:102AD0008FE10E949314882319F0298124602983AF
:102AE00080E20E949314882319F039813860398379
:102AF00081E20E949314882319F04981406149833F
:102B000082E20E949314882319F0598150625983FC
:102B100083E20E949314882319F089818064898359
:102B200084E20E9493148823B1F19981906899837B
:102B300089810E9462133981232F30E050E040E008
:102B400029833A834B835C83CA01B9010F900F90AC
:102B50000F900F90DF91CF910C94AB0F8EE00E94FD
:102B60009314882339F09091C801892F8B7F92FFAD
:102B7000846029CF80E10E9493149091C80188233A
:102B800029F0892F877F93FF88601DCF892F8E7F43
:102B900090FF816018CFA981A111CACF0E945E1356
:102BA000282FCBCF0F900F900F900F90DF91CF91E8
:102BB00008958091CC0180FF12C06091050185E0ED
:102BC000689FB00111247595679575956795603874
:102BD0007105A8F561157105A1F1862F089581FF92
:102BE00009C06091050185E0689FB00111247595C9
:102BF0006795EDCF6091050182FD0AC08091CD01FE
:102C00008823D1F09091040160910501891728F083
:102C100085E0689FB0011124DACF869FB0011124AE
:102C200085E0869F9001879F300D1124692F70E009
:102C3000C9010E945120CBCF65E070E0CECF8FE775
:102C4000089581E008958091CC0180FF0CC06091CF
:102C5000030170E075956795759567956115710528
:102C600049F1862F089581FF06C06091030170E04D
:102C700075956795F3CF6091030182FD0BC090912C
:102C8000CD019923A1F06091020180910301961773
:102C900038F0682F70E06038710500F38FE7089511
:102CA000899FC001112470E00E945120F4CF61E09F
:102CB00070E0D7CF81E00895803F31F40E94D915AC
:102CC00081958093D0010895813F19F40E94D91510
:102CD000F8CF823F31F40E94D91581958093CF01BE
:102CE0000895833F19F40E94D915F8CF893F29F43C
:102CF0000E9423168093D10108958A3F21F40E94F7
:102D000023168195F7CF8B3F31F40E9423168195CE
:102D10008093D20108958C3F19F40E942316F8CFB6
:102D2000843F31F48091CE0181608093CE0108957B
:102D3000853F21F48091CE018260F7CF863F21F458
:102D40008091CE018460F1CF873F21F48091CE0144
:102D50008860EBCF883F21F48091CE018061E5CF80
:102D60008D3F31F48091CC0181608093CC01089536
:102D70008E3F21F48091CC018260F7CF8F3FB9F76D
:102D80008091CC018460F1CF9091CF01803F41F4DC
:102D90008091D00187FD1092D001992371F00895A0
:102DA000813F29F48091D0011816ACF3F6CF823F11
:102DB00081F497FFF2CF1092CF018091D0019091D2
:102DC000D101892B9091D201892B49F71092CD0125
:102DD0000895833F19F4191674F3DFCF893F39F44E
:102DE0008091D1011816CCF61092D101D6CF8A3F2E
:102DF00029F48091D10187FFD0CFF6CF8B3F39F4F2
:102E00008091D20187FFC9CF1092D201C6CF8C3FEB
:102E100029F48091D2011816BCF3BFCF843F31F45E
:102E20008091CE018E7F8093CE01B7CF853F21F474
:102E30008091CE018D7FF7CF863F21F48091CE0126
:102E40008B7FF1CF873F21F48091CE01877FEBCF3D
:102E5000883F21F48091CE018F7EE5CF8D3F31F404
:102E60008091CC018E7F8093CC0197CF8E3F21F44F
:102E70008091CC018D7FF7CF8F3F09F08ECF80916D
:102E8000CC018B7FF0CF8EEC91E00E943B070E943B
:102E9000E8139093CB018093CA0108951F93CF93B9
:102EA000DF9300D000D000D0CDB7DEB78091CA014B
:102EB0009091CB010E94F413AC018091CD0120913F
:102EC000060130E0811106C0209107019AE0299F98
:102ED000900111244217530788F02091CF01A0914F
:102EE000D001A9831091D101B091D201BE832111EB
:102EF0000FC09A2F912B9B2B09F0B2C026960FB6CC
:102F0000F894DEBF0FBECDBFDF91CF911F91089522
:102F10008F3F19F08F5F8093CD01121624F40E9429
:102F2000D9158093CF018091CF0187FF05C00E9402
:102F3000D91581958093CF012981121624F40E941E
:102F4000D9158093D0018091D00187FF05C00E94E0
:102F5000D91581958093D0018091CF01882309F400
:102F600055C03091D0013D83332309F44FC0282F41
:102F7000880F330B440B550B29833A834B835C83B7
:102F8000CA01B9010E94581F23E333E343E35FE31F
:102F900069837A838B839C8369817A818B819C810D
:102FA0000E94BC1F69837A838B839C8369817A81A9
:102FB0008B819C810E94201F6093CF018D81082E00
:102FC000000C990BAA0BBB0B89839A83AB83BC8340
:102FD000BC01CD010E94581F23E333E343E35FE3C9
:102FE00069837A838B839C8369817A818B819C81BD
:102FF0000E94BC1F69837A838B839C8369817A8159
:103000008B819C810E94201F6093D001111624F4B3
:103010000E9423168093D1018091D10187FF05C0C2
:103020000E94231681958093D1019E81191624F464
:103030000E9423168093D2018091D20187FF05C0A0
:103040000E94231681958093D20126960FB6F8949C
:10305000DEBF0FBECDBFDF91CF911F910C94431700
:103060008F3F09F057CF68CF85E0EEECF1E0DF014C
:103070001D928A95E9F71092CD011092CC01089526
:103080008091F3010895CF93DF9300D00F92CDB7D5
:10309000DEB72091FF01243019F523E029838A83CC
:1030A0009B832093E9008FEF9091E800815095FD7C
:1030B00006C095ED9A95F1F700008111F5CF80914A
:1030C000E80085FF0DC050E040E063E070E0CE0115
:1030D00001960E94A01A8091E8008E778093E80004
:1030E0000F900F900F90DF91CF910895CF93DF93C2
:1030F00000D00F92CDB7DEB79C018091FF018430E4
:1031000031F582E08983205831093B832A8383E0AB
:103110008093E9008FEF9091E800815095FD06C003
:1031200095ED9A95F1F700008111F5CF8091E800B7
:1031300085FF0DC050E040E063E070E0CE010196F5
:103140000E94A01A8091E8008E778093E8000F908B
:103150000F900F90DF91CF9108952091FF012430BF
:10316000F1F422E02093E9002FEF3091E8002150A4
:1031700035FD06C035ED3A95F1F700002111F5CF88
:103180002091E80025FF0BC050E040E065E070E0D2
:103190000E94A01A8091E8008E778093E80008953D
:1031A000CF93DF93D82FC92F8091FF018430F1F4A2
:1031B000909112019923E9F09091F90197FF19C0BC
:1031C0008093E9008FEF9091E800815095FD06C053
:1031D00095E19A95F1F700008111F5CF8091E80013
:1031E00050E040E060E270E085FD1AC0DF91CF91D1
:1031F000089581E08093E9008FEF9091E80081507D
:1032000095FD06C095ED9A95F1F700008111F5CF77
:103210008091E80085FFEACF50E040E068E070E090
:103220008D2F9C2F0E94A01A8091E8008E778093AA
:10323000E80080E2ED2FFC2FA3EDB1E001900D92AC
:103240008A95E1F7D3CF8091FE01811109C00E94D8
:10325000281C0E94851C8091E20084608093E2001B
:1032600008951092FE010895089508950C94B213E4
:1032700042E061EC81E00E94A41B42E061EC82E04C
:103280000E94A41B42E061EC83E00E94A41B42E286
:1032900061EC84E00C94A41B80910102893089F1D7
:1032A00048F4823009F494C0833009F44FC081306F
:1032B00041F008958A3009F47BC08B3009F461C075
:1032C000089580910002813A09F03FC08091E800A2
:1032D000877F8093E8008091040290910502892BFA
:1032E00061F460E283ED91E070E00E94EF1A80915A
:1032F000E8008B778093E800089560E090E080E03C
:10330000F3CF80910002813201F580910402909107
:103310000502009711F00397C1F48091E800877FC0
:103320008093E8008091E80082FF0BC08091F1005B
:103330008093F3018091E8008B778093E8000C94F0
:10334000D81B8091FF018111EDCF0895809100027B
:10335000813AD9F78091040290910502892BA9F74F
:103360008091E800877F8093E8008091E80080FFEB
:10337000FCCF809112018093F1008091E8008E775C
:10338000DCCF80910002813201F78091040290919C
:103390000502892BD1F68091E800877F8093E800B1
:1033A0000E94D81B80910202809312010C940C0C95
:1033B00080910002813249F68091E800877F8093F6
:1033C000E8000E94D81B809103028093F4010895C5
:1033D00080910002813A09F0B8CF8091E800877FA0
:1033E0008093E8008091E80080FFFCCF8091F40199
:1033F000C2CF84B7877F84BF0FB6F894A895809119
:103400006000886180936000109260000FBE80E8C9
:1034100080936100109261000E9473070E94281C33
:103420000E94851C8091E20084608093E200789481
:103430000E94051F0E94750788E091E00E941F0707
:103440008091FF01853019F00E947B07F9CF0E941F
:1034500070138091FD01882399F30E949E138823A5
:1034600079F30E948A1AECCF9C01DA01892F9927FF
:1034700083309105C1F068F48130910509F445C0AD
:10348000029761F48DE690E02CED32E02D933C93B1
:10349000089581329105E1F0829739F190E080E062
:1034A00030E020E0F3CFC9019927213059F0823074
:1034B000910559F0E8EDF2E0892B81F7849190E0D5
:1034C0009F01E4CFE0ECF2E0F9CFECEAF2E0F6CFD6
:1034D000643020F7E62FF0E0EE0FFF1FE95DFE4FAE
:1034E0002081318189E090E0D1CF6430B8F670E07E
:1034F000FB01EE0FFF1FE15EFE4F20813181655E13
:103500007E4FFB01808190E0C1CF82E190E029E411
:1035100033E0BCCF80E189BD82E189BD09B400FE02
:10352000FDCF8091D8008F7D8093D8008091E000FE
:1035300082608093E0008091E00081FDFCCF0895DF
:10354000AF92BF92CF92DF92FF920F931F93CF93D0
:10355000DF936C01EB018A010E94F71BF82E8111A9
:1035600023C00115110539F0F80180819181C81B34
:10357000D90BC80ED91EB12CA12C2097A9F080918F
:10358000E80085FD22C08091E8008E778093E800F6
:1035900001151105A1F0F80180819181A80EB91ED5
:1035A000B182A08285E0F82E8F2DDF91CF911F91FF
:1035B0000F91FF90DF90CF90BF90AF9008950E9441
:1035C000F71B8823D1F2F82EEFCFF60181916F011E
:1035D0008093F1002197FFEFAF1ABF0ACECFFC0115
:1035E000CB0120910602309107022617370790F091
:1035F000009729F42091E8002E772093E80040E01E
:10360000009751F4411108C08091E80082FF31C059
:1036100080E00895C901F3CF2091FF012223A9F191
:103620002530A9F12091E80023FD2DC02091E8006C
:1036300022FDEACF2091E80020FFE2CF3091F30095
:103640002091F200009719F02830310558F041E040
:103650002830310509F040E02091E8002E772093D2
:10366000E800CECF41914093F10001972F5F3F4F8B
:10367000E9CF8091FF01882341F0853041F08091AE
:10368000E80083FFC1CF81E0089582E0089583E0E0
:103690000895FC01CB012091060230910702261704
:1036A000370790F0009729F42091E8002E772093B7
:1036B000E80040E0009751F4411108C08091E80013
:1036C00082FF32C080E00895C901F3CF2091FF014D
:1036D0002223B1F12530B1F12091E80023FD2EC065
:1036E0002091E80022FDEACF2091E80020FFE2CF00
:1036F0003091F3002091F200009719F02830310545
:1037000058F041E02830310509F040E02091E80010
:103710002E772093E800CECF44914093F10031966C
:1037200001972F5F3F4FE8CF8091FF01882341F041
:10373000853041F08091E80083FFC0CF81E008959B
:1037400082E0089583E00895982F973028F08F70D5
:103750008093E90081E008959093E900242F762F6B
:1037600050E0981731F07091EC002091ED005091ED
:10377000F00021FD02C09F5FE8CF3091EB003E7F5B
:103780003093EB003091ED003D7F3093ED003091B0
:10379000EB0031603093EB007093EC002093ED0070
:1037A0005093F0002091EE0027FDE5CF80E00895D2
:1037B0008091000287FF13C08091E80082FF06C05D
:1037C0008091E8008B778093E80004C08091FF012E
:1037D0008111F2CF08958091FF018823D9F3809160
:1037E000E80080FFF8CF8091E8008E77ECCF209141
:1037F000E4003091E50095E6A9012091EC00822FCC
:10380000817020FF06C08091E80080FF06C080E044
:1038100008952091E80022FD1AC08091FF018823BD
:1038200089F0853089F08091EB0085FD0FC02091F3
:10383000E4003091E50042175307F9F29150E1F6A8
:1038400084E0089582E0089583E0089581E008957A
:103850000E94961C0E949E1CE0EEF0E08081816038
:103860008083E8EDF0E080818F77808319BCA7ED3D
:10387000B0E08C918E7F8C9380818F7E80831092BC
:10388000FE0108950F931F93CF93DF930E94961C20
:103890000E949E1CC8EDD0E088818F778883888144
:1038A0008068888388818F7D888319BC1092FF018E
:1038B0001092FB011092FD011092FC0100EE10E04D
:1038C000F80180818B7F808388818160888342E0DA
:1038D00060E080E00E94A41BE1EEF0E080818E7F3A
:1038E0008083E2EEF0E08081816080838081886067
:1038F0008083F80180818E7F8083888180618883C6
:10390000DF91CF911F910F910895E8EDF0E0808154
:103910008F7E8083E7EDF0E080818160808384E0AA
:1039200082BF81E08093FE010C94421CE8EDF0E040
:1039300080818E7F80831092E20008951092DA00D9
:103940001092E10008951F920F920FB60F9211246A
:103950002F933F934F935F936F937F938F939F9397
:10396000AF93BF93EF93FF938091E10082FF0BC071
:103970008091E20082FF07C08091E1008B7F8093FD
:10398000E1000E94041F8091DA0080FF19C080913D
:10399000D80080FF15C08091DA008E7F8093DA0016
:1039A0008091D90080FF94C080E189BD82E189BD0A
:1039B00009B400FEFDCF81E08093FF010E9423192E
:1039C0008091E10080FF19C08091E20080FF15C066
:1039D0008091E2008E7F8093E2008091E20080611E
:1039E0008093E2008091D80080628093D80019BC57
:1039F00085E08093FF010E9435198091E10084FFEA
:103A000029C08091E20084FF25C080E189BD82E168
:103A100089BD09B400FEFDCF8091D8008F7D8093D1
:103A2000D8008091E1008F7E8093E1008091E200D8
:103A30008F7E8093E2008091E20081608093E200BB
:103A40008091FB01882309F449C084E08093FF0141
:103A50000E9436198091E10083FF29C08091E20025
:103A600083FF25C08091E100877F8093E10082E0A1
:103A70008093FF011092FB018091E1008E7F809383
:103A8000E1008091E2008E7F8093E2008091E2006D
:103A900080618093E20042E060E080E00E94A41B2D
:103AA0008091F00088608093F0000E943419FF91AB
:103AB000EF91BF91AF919F918F917F916F915F91A6
:103AC0004F913F912F910F900FBE0F901F9018951F
:103AD00019BC1092FF010E94311972CF8091E3004E
:103AE00087FD02C081E0B2CF83E0B0CF1F920F927A
:103AF0000FB60F9211242F933F934F935F936F93C1
:103B00007F938F939F93AF93BF93CF93DF93EF9365
:103B1000FF93D091E900DF708091EC00C82FC17055
:103B200080FDC0E81092E9008091F000877F8093CB
:103B3000F00078940E94BA1D1092E9008091F00084
:103B400088608093F000CD2BCF70C093E900FF9187
:103B5000EF91DF91CF91BF91AF919F918F917F9125
:103B60006F915F914F913F912F910F900FBE0F90EA
:103B70001F9018951F93CF93DF93CDB7DEB7AA9709
:103B80000FB6F894DEBF0FBECDBF80E092E0FC011F
:103B900001962091F100208322E088309207B9F746
:103BA0000E944C198091E80083FF16C180910002A9
:103BB000909101029A3008F00FC1E92FF0E0E7522E
:103BC000FF4D0C946520803881F0823809F004C1E3
:103BD000809104028F708093E9008091EB0085FB57
:103BE000882780F91092E90006C08091FC0190912D
:103BF000FD01911182609091E800977F9093E80019
:103C00008093F1001092F1008091E8008E77E0C07F
:103C1000882309F4CEC0823009F0DEC08091020210
:103C20008111D1C0809104028F7009F4D5C08093B6
:103C3000E9002091EB0020FFC6C0933031F4809161
:103C4000EB0080628093EB00BEC09091EB0090612E
:103C50009093EB0021E030E001C0220F8A95EAF753
:103C60002093EA001092EA008091EB008860EACF8E
:103C70008111B2C0109102021F778091E300807819
:103C8000812B8093E3008091E800877F8093E80098
:103C90000E94D81B8091E80080FFFCCF8091E30058
:103CA00080688093E30082E0111183E08093FF013C
:103CB00093C08058823008F08FC0809102029091AA
:103CC00003028C3D23E09207A1F583E08A838AE218
:103CD00089834FB7F894DE01139620E03EE051E26D
:103CE000E32FF0E050935700E49120FF03C0E295EA
:103CF000EF703F5FEF708E2F90E0EA30C0F0C79614
:103D00008D939D932F5F243159F74FBF8091E80029
:103D1000877F8093E8006AE270E0CE0101960E94FE
:103D2000EF1A8091E8008B778093E80055C0C09629
:103D3000E7CFAE014F5F5F4F609104020E94341ADB
:103D4000BC01892B09F448C08091E800877F8093EB
:103D5000E80089819A810E94491BE3CF8038E1F510
:103D60008091E800877F8093E8008091FB01809339
:103D7000F1004ACF811130C090910202923060F57B
:103D80008091E800877F8093E8009093FB010E9478
:103D9000D81B8091FB01882311F084E005C080913D
:103DA000E30087FDFACF81E08093FF010E9438197C
:103DB00013C080910202813079F481E0933009F0E0
:103DC00080E08093FD011092E9008091E800877FF8
:103DD0008093E8000E94D81B8091E80083FF0AC00E
:103DE0008091E800877F8093E8008091EB008062FB
:103DF0008093EB00AA960FB6F894DEBF0FBECDBF3E
:103E0000DF91CF911F9108950895CF938091FF0185
:103E10008823A1F0C091E900CF709091EC00892F28
:103E2000817090FD80E8C82B1092E9008091E80035
:103E300083FD0E94BA1DCF70C093E900CF91089511
:103E40000E94271F6894B1110C94B61F08950E9418
:103E50009B1F88F09F5798F0B92F9927B751B0F062
:103E6000E1F0660F771F881F991F1AF0BA95C9F7FE
:103E700014C0B13091F00E94B51FB1E008950C94C8
:103E8000B51F672F782F8827B85F39F0B93FCCF37B
:103E9000869577956795B395D9F73EF4909580957B
:103EA000709561957F4F8F4F9F4F0895E89409C09B
:103EB00097FB3EF490958095709561957F4F8F4F5D
:103EC0009F4F9923A9F0F92F96E9BB279395F69573
:103ED000879577956795B795F111F8CFFAF4BB0FF1
:103EE00011F460FF1BC06F5F7F4F8F4F9F4F16C055
:103EF000882311F096E911C0772321F09EE8872FDF
:103F0000762F05C0662371F096E8862F70E060E09A
:103F10002AF09A95660F771F881FDAF7880F969513
:103F2000879597F9089557FD9058440F551F59F0FC
:103F30005F3F71F04795880F97FB991F61F09F3F96
:103F400079F087950895121613061406551FF2CFBF
:103F50004695F1DF08C0161617061806991FF1CF0F
:103F600086957105610508940895E894BB27662736
:103F70007727CB0197F908950E94CF1F0C9440201A
:103F80000E94322038F00E94392020F0952311F051
:103F90000C9429200C942F2011240C94B61F0E94FD
:103FA000931F70F3959FC1F3950F50E0551F629FCB
:103FB000F001729FBB27F00DB11D639FAA27F00D82
:103FC000B11DAA1F649F6627B00DA11D661F829FA9
:103FD0002227B00DA11D621F739FB00DA11D621F8E
:103FE000839FA00D611D221F749F3327A00D611DAB
:103FF000231F849F600D211D822F762F6A2F11248D
:104000009F5750409AF0F1F088234AF0EE0FFF1FBF
:10401000BB1F661F771F881F91505040A9F79E3F16
:10402000510580F00C9429200C94B61F5F3FE4F3F7
:10403000983ED4F3869577956795B795F795E7956C
:104040009F5FC1F7FE2B880F911D9695879597F975
:10405000089597F99F6780E870E060E008959FEF0A
:1040600080EC089500240A9416161706180609060F
:10407000089500240A9412161306140605060895DE
:10408000092E0394000C11F4882352F0BB0F40F466
:10409000BF2B11F460FF04C06F5F7F4F8F4F9F4FA6
:1040A000089597FB072E16F4009407D077FD09D0EA
:1040B0000E946B2007FC05D03EF4909581959F4FA0
:1040C0000895709561957F4F0895EE0FFF1F05903D
:1040D000F491E02D0994AA1BBB1B51E107C0AA1F54
:1040E000BB1FA617B70710F0A61BB70B881F991F99
:1040F0005A95A9F780959095BC01CD010895F9993D
:10410000FECF92BD81BDF89A992780B50895A8E1A8
:10411000B0E042E050E00C94A720262FF999FECFA2
:1041200092BD81BDF89A019700B4021639F01FBA0A
:1041300020BD0FB6F894FA9AF99A0FBE0895019629
:10414000272F0E948E200C948D20DC01CB01FC01D6
:10415000F999FECF06C0F2BDE1BDF89A319600B4E0
:104160000D9241505040B8F70895F894FFCF2E03B8
:104170003A033E03420346034A034E0352035603E7
:104180005A035E03620366036A036E0372037603D7
:104190007A03B709B7090F0A0F0A530A6F0AE7092A
:1041A000E7097A0AE709420B420BAD0BE709E70979
:1041B000B60BE31D081EEC1E081EEC1E381E591E11
:0641C000EC1EAE1EBA1E4B
:1041C600A5012808140A321E4018D018AD18761812
:1041D6004318013435363730313233404D363917CE
:1041E60004CA0394035B03EE0207032003390300AA
:00000001FF
